{
  "_format": "hh-sol-artifact-1",
  "contractName": "Gold",
  "sourceName": "contracts/Gold.sol",
  "abi": [
    {
      "inputs": [],
      "stateMutability": "nonpayable",
      "type": "constructor"
    },
    {
      "anonymous": false,
      "inputs": [
        {
          "indexed": false,
          "internalType": "uint256",
          "name": "amountDeposited",
          "type": "uint256"
        },
        {
          "indexed": false,
          "internalType": "uint256",
          "name": "balance",
          "type": "uint256"
        }
      ],
      "name": "FundsDeposited",
      "type": "event"
    },
    {
      "anonymous": false,
      "inputs": [
        {
          "indexed": false,
          "internalType": "uint256",
          "name": "amountWithdrawn",
          "type": "uint256"
        },
        {
          "indexed": false,
          "internalType": "uint256",
          "name": "balance",
          "type": "uint256"
        }
      ],
      "name": "FundsWithdrawn",
      "type": "event"
    },
    {
      "anonymous": false,
      "inputs": [
        {
          "indexed": false,
          "internalType": "uint256",
          "name": "buyingId",
          "type": "uint256"
        },
        {
          "indexed": false,
          "internalType": "address",
          "name": "userId",
          "type": "address"
        }
      ],
      "name": "GoldBought",
      "type": "event"
    },
    {
      "anonymous": false,
      "inputs": [
        {
          "indexed": false,
          "internalType": "uint256",
          "name": "sellingId",
          "type": "uint256"
        },
        {
          "indexed": false,
          "internalType": "address",
          "name": "userId",
          "type": "address"
        }
      ],
      "name": "GoldSold",
      "type": "event"
    },
    {
      "inputs": [
        {
          "internalType": "uint256",
          "name": "",
          "type": "uint256"
        }
      ],
      "name": "allBoughtHistory",
      "outputs": [
        {
          "internalType": "uint256",
          "name": "buyingId",
          "type": "uint256"
        },
        {
          "internalType": "address",
          "name": "userId",
          "type": "address"
        },
        {
          "internalType": "string",
          "name": "carrat",
          "type": "string"
        },
        {
          "internalType": "uint256",
          "name": "weight",
          "type": "uint256"
        },
        {
          "internalType": "uint256",
          "name": "priceperg",
          "type": "uint256"
        },
        {
          "internalType": "uint256",
          "name": "timestamp",
          "type": "uint256"
        }
      ],
      "stateMutability": "view",
      "type": "function"
    },
    {
      "inputs": [
        {
          "internalType": "uint256",
          "name": "",
          "type": "uint256"
        }
      ],
      "name": "allHoldings",
      "outputs": [
        {
          "internalType": "uint256",
          "name": "buyingId",
          "type": "uint256"
        },
        {
          "internalType": "address",
          "name": "userId",
          "type": "address"
        },
        {
          "internalType": "string",
          "name": "carrat",
          "type": "string"
        },
        {
          "internalType": "uint256",
          "name": "weight",
          "type": "uint256"
        },
        {
          "internalType": "uint256",
          "name": "priceperg",
          "type": "uint256"
        },
        {
          "internalType": "uint256",
          "name": "timestamp",
          "type": "uint256"
        }
      ],
      "stateMutability": "view",
      "type": "function"
    },
    {
      "inputs": [
        {
          "internalType": "uint256",
          "name": "",
          "type": "uint256"
        }
      ],
      "name": "allSoldHistory",
      "outputs": [
        {
          "internalType": "uint256",
          "name": "sellingId",
          "type": "uint256"
        },
        {
          "internalType": "uint256",
          "name": "buyingId",
          "type": "uint256"
        },
        {
          "internalType": "address",
          "name": "userId",
          "type": "address"
        },
        {
          "internalType": "string",
          "name": "carrat",
          "type": "string"
        },
        {
          "internalType": "uint256",
          "name": "weight",
          "type": "uint256"
        },
        {
          "internalType": "uint256",
          "name": "priceperg",
          "type": "uint256"
        },
        {
          "internalType": "uint256",
          "name": "timestamp",
          "type": "uint256"
        }
      ],
      "stateMutability": "view",
      "type": "function"
    },
    {
      "inputs": [
        {
          "internalType": "string",
          "name": "_carrat",
          "type": "string"
        },
        {
          "internalType": "uint256",
          "name": "_weight",
          "type": "uint256"
        },
        {
          "internalType": "uint256",
          "name": "_priceperg",
          "type": "uint256"
        },
        {
          "internalType": "uint256",
          "name": "_buyingId",
          "type": "uint256"
        }
      ],
      "name": "buying",
      "outputs": [],
      "stateMutability": "payable",
      "type": "function"
    },
    {
      "inputs": [],
      "name": "deposit",
      "outputs": [],
      "stateMutability": "payable",
      "type": "function"
    },
    {
      "inputs": [],
      "name": "getContractBalance",
      "outputs": [
        {
          "internalType": "uint256",
          "name": "",
          "type": "uint256"
        }
      ],
      "stateMutability": "view",
      "type": "function"
    },
    {
      "inputs": [
        {
          "internalType": "uint256",
          "name": "_sellingId",
          "type": "uint256"
        }
      ],
      "name": "getSoldBySellingId",
      "outputs": [
        {
          "components": [
            {
              "internalType": "uint256",
              "name": "sellingId",
              "type": "uint256"
            },
            {
              "internalType": "uint256",
              "name": "buyingId",
              "type": "uint256"
            },
            {
              "internalType": "address",
              "name": "userId",
              "type": "address"
            },
            {
              "internalType": "string",
              "name": "carrat",
              "type": "string"
            },
            {
              "internalType": "uint256",
              "name": "weight",
              "type": "uint256"
            },
            {
              "internalType": "uint256",
              "name": "priceperg",
              "type": "uint256"
            },
            {
              "internalType": "uint256",
              "name": "timestamp",
              "type": "uint256"
            }
          ],
          "internalType": "struct Gold.GoldSoldStruct",
          "name": "",
          "type": "tuple"
        }
      ],
      "stateMutability": "view",
      "type": "function"
    },
    {
      "inputs": [],
      "name": "owner",
      "outputs": [
        {
          "internalType": "address",
          "name": "",
          "type": "address"
        }
      ],
      "stateMutability": "view",
      "type": "function"
    },
    {
      "inputs": [
        {
          "internalType": "uint256",
          "name": "_buyingId",
          "type": "uint256"
        },
        {
          "internalType": "uint256",
          "name": "_weight",
          "type": "uint256"
        },
        {
          "internalType": "uint256",
          "name": "_priceperg",
          "type": "uint256"
        },
        {
          "internalType": "uint256",
          "name": "_sellingId",
          "type": "uint256"
        }
      ],
      "name": "selling",
      "outputs": [],
      "stateMutability": "nonpayable",
      "type": "function"
    },
    {
      "inputs": [
        {
          "internalType": "uint256",
          "name": "_buyingId",
          "type": "uint256"
        }
      ],
      "name": "viewBoughtByBuyingId",
      "outputs": [
        {
          "components": [
            {
              "internalType": "uint256",
              "name": "buyingId",
              "type": "uint256"
            },
            {
              "internalType": "address",
              "name": "userId",
              "type": "address"
            },
            {
              "internalType": "string",
              "name": "carrat",
              "type": "string"
            },
            {
              "internalType": "uint256",
              "name": "weight",
              "type": "uint256"
            },
            {
              "internalType": "uint256",
              "name": "priceperg",
              "type": "uint256"
            },
            {
              "internalType": "uint256",
              "name": "timestamp",
              "type": "uint256"
            }
          ],
          "internalType": "struct Gold.GoldBoughtStruct",
          "name": "",
          "type": "tuple"
        }
      ],
      "stateMutability": "view",
      "type": "function"
    },
    {
      "inputs": [
        {
          "internalType": "uint256",
          "name": "_buyingId",
          "type": "uint256"
        }
      ],
      "name": "viewHoldingsByBuyingId",
      "outputs": [
        {
          "components": [
            {
              "internalType": "uint256",
              "name": "buyingId",
              "type": "uint256"
            },
            {
              "internalType": "address",
              "name": "userId",
              "type": "address"
            },
            {
              "internalType": "string",
              "name": "carrat",
              "type": "string"
            },
            {
              "internalType": "uint256",
              "name": "weight",
              "type": "uint256"
            },
            {
              "internalType": "uint256",
              "name": "priceperg",
              "type": "uint256"
            },
            {
              "internalType": "uint256",
              "name": "timestamp",
              "type": "uint256"
            }
          ],
          "internalType": "struct Gold.GoldBoughtStruct",
          "name": "",
          "type": "tuple"
        }
      ],
      "stateMutability": "view",
      "type": "function"
    },
    {
      "inputs": [
        {
          "internalType": "uint256",
          "name": "amount",
          "type": "uint256"
        }
      ],
      "name": "withdraw",
      "outputs": [],
      "stateMutability": "nonpayable",
      "type": "function"
    }
  ],
  "bytecode": "0x6080604052348015600f57600080fd5b50336000806101000a81548173ffffffffffffffffffffffffffffffffffffffff021916908373ffffffffffffffffffffffffffffffffffffffff1602179055506129088061005f6000396000f3fe6080604052600436106100a75760003560e01c80636f9fb98a116100645780636f9fb98a146101ef5780638da5cb5b1461021a57806396aff98414610245578063d0e30db014610288578063dcad1a0114610292578063f828480f146102bb576100a7565b806324544c07146100ac578063260e21e7146100ee578063260e6b5f146101305780632df163f31461016d5780632e1a7d4d146101aa57806364cd4f58146101d3575b600080fd5b3480156100b857600080fd5b506100d360048036038101906100ce9190611878565b6102f8565b6040516100e596959493929190611985565b60405180910390f35b3480156100fa57600080fd5b5061011560048036038101906101109190611878565b6103ec565b60405161012796959493929190611985565b60405180910390f35b34801561013c57600080fd5b5061015760048036038101906101529190611878565b6104e0565b6040516101649190611af1565b60405180910390f35b34801561017957600080fd5b50610194600480360381019061018f9190611878565b6106c1565b6040516101a19190611b9c565b60405180910390f35b3480156101b657600080fd5b506101d160048036038101906101cc9190611878565b610898565b005b6101ed60048036038101906101e89190611cf3565b6109ec565b005b3480156101fb57600080fd5b50610204610c4a565b6040516102119190611d76565b60405180910390f35b34801561022657600080fd5b5061022f610ce1565b60405161023c9190611d91565b60405180910390f35b34801561025157600080fd5b5061026c60048036038101906102679190611878565b610d05565b60405161027f9796959493929190611dac565b60405180910390f35b610290610dff565b005b34801561029e57600080fd5b506102b960048036038101906102b49190611e22565b610f0b565b005b3480156102c757600080fd5b506102e260048036038101906102dd9190611878565b61155b565b6040516102ef9190611b9c565b60405180910390f35b6002818154811061030857600080fd5b90600052602060002090600602016000915090508060000154908060010160009054906101000a900473ffffffffffffffffffffffffffffffffffffffff169080600201805461035790611eb8565b80601f016020809104026020016040519081016040528092919081815260200182805461038390611eb8565b80156103d05780601f106103a5576101008083540402835291602001916103d0565b820191906000526020600020905b8154815290600101906020018083116103b357829003601f168201915b5050505050908060030154908060040154908060050154905086565b600181815481106103fc57600080fd5b90600052602060002090600602016000915090508060000154908060010160009054906101000a900473ffffffffffffffffffffffffffffffffffffffff169080600201805461044b90611eb8565b80601f016020809104026020016040519081016040528092919081815260200182805461047790611eb8565b80156104c45780601f10610499576101008083540402835291602001916104c4565b820191906000526020600020905b8154815290600101906020018083116104a757829003601f168201915b5050505050908060030154908060040154908060050154905086565b6104e8611732565b60005b60038054905081101561068057826003828154811061050d5761050c611ee9565b5b90600052602060002090600702016000015403610673576003818154811061053857610537611ee9565b5b90600052602060002090600702016040518060e001604052908160008201548152602001600182015481526020016002820160009054906101000a900473ffffffffffffffffffffffffffffffffffffffff1673ffffffffffffffffffffffffffffffffffffffff1673ffffffffffffffffffffffffffffffffffffffff1681526020016003820180546105cb90611eb8565b80601f01602080910402602001604051908101604052809291908181526020018280546105f790611eb8565b80156106445780601f1061061957610100808354040283529160200191610644565b820191906000526020600020905b81548152906001019060200180831161062757829003601f168201915b5050505050815260200160048201548152602001600582015481526020016006820154815250509150506106bc565b80806001019150506104eb565b506040517f08c379a00000000000000000000000000000000000000000000000000000000081526004016106b390611f8a565b60405180910390fd5b919050565b6106c9611785565b60005b6002805490508110156108575782600282815481106106ee576106ed611ee9565b5b9060005260206000209060060201600001540361084a576002818154811061071957610718611ee9565b5b90600052602060002090600602016040518060c0016040529081600082015481526020016001820160009054906101000a900473ffffffffffffffffffffffffffffffffffffffff1673ffffffffffffffffffffffffffffffffffffffff1673ffffffffffffffffffffffffffffffffffffffff1681526020016002820180546107a290611eb8565b80601f01602080910402602001604051908101604052809291908181526020018280546107ce90611eb8565b801561081b5780601f106107f05761010080835404028352916020019161081b565b820191906000526020600020905b8154815290600101906020018083116107fe57829003601f168201915b505050505081526020016003820154815260200160048201548152602001600582015481525050915050610893565b80806001019150506106cc565b506040517f08c379a000000000000000000000000000000000000000000000000000000000815260040161088a90611ff6565b60405180910390fd5b919050565b60008054906101000a900473ffffffffffffffffffffffffffffffffffffffff1673ffffffffffffffffffffffffffffffffffffffff163373ffffffffffffffffffffffffffffffffffffffff1614610926576040517f08c379a000000000000000000000000000000000000000000000000000000000815260040161091d90612062565b60405180910390fd5b80471015610969576040517f08c379a0000000000000000000000000000000000000000000000000000000008152600401610960906120ce565b60405180910390fd5b3373ffffffffffffffffffffffffffffffffffffffff166108fc829081150290604051600060405180830381858888f193505050501580156109af573d6000803e3d6000fd5b507fd66662c0ded9e58fd31d5e44944bcfd07ffc15e6927ecc1382e7941cb7bd24c481476040516109e19291906120ee565b60405180910390a150565b600082846109fa9190612146565b905060006064606683610a0d9190612146565b610a1791906121b7565b9050803414610a5b576040517f08c379a0000000000000000000000000000000000000000000000000000000008152600401610a5290612234565b60405180910390fd5b60006040518060c001604052808581526020013373ffffffffffffffffffffffffffffffffffffffff16815260200188815260200187815260200186815260200142815250905060018190806001815401808255809150506001900390600052602060002090600602016000909190919091506000820151816000015560208201518160010160006101000a81548173ffffffffffffffffffffffffffffffffffffffff021916908373ffffffffffffffffffffffffffffffffffffffff1602179055506040820151816002019081610b349190612400565b50606082015181600301556080820151816004015560a08201518160050155505060028190806001815401808255809150506001900390600052602060002090600602016000909190919091506000820151816000015560208201518160010160006101000a81548173ffffffffffffffffffffffffffffffffffffffff021916908373ffffffffffffffffffffffffffffffffffffffff1602179055506040820151816002019081610be79190612400565b50606082015181600301556080820151816004015560a0820151816005015550507f545aeca2ae49432fe594ee47e7a692bfcf676892386318ffb279cd1a6e42d6b78433604051610c399291906124d2565b60405180910390a150505050505050565b60008060009054906101000a900473ffffffffffffffffffffffffffffffffffffffff1673ffffffffffffffffffffffffffffffffffffffff163373ffffffffffffffffffffffffffffffffffffffff1614610cdb576040517f08c379a0000000000000000000000000000000000000000000000000000000008152600401610cd290612062565b60405180910390fd5b47905090565b60008054906101000a900473ffffffffffffffffffffffffffffffffffffffff1681565b60038181548110610d1557600080fd5b90600052602060002090600702016000915090508060000154908060010154908060020160009054906101000a900473ffffffffffffffffffffffffffffffffffffffff1690806003018054610d6a90611eb8565b80601f0160208091040260200160405190810160405280929190818152602001828054610d9690611eb8565b8015610de35780601f10610db857610100808354040283529160200191610de3565b820191906000526020600020905b815481529060010190602001808311610dc657829003601f168201915b5050505050908060040154908060050154908060060154905087565b60008054906101000a900473ffffffffffffffffffffffffffffffffffffffff1673ffffffffffffffffffffffffffffffffffffffff163373ffffffffffffffffffffffffffffffffffffffff1614610e8d576040517f08c379a0000000000000000000000000000000000000000000000000000000008152600401610e8490612062565b60405180910390fd5b60003411610ed0576040517f08c379a0000000000000000000000000000000000000000000000000000000008152600401610ec790612547565b60405180910390fd5b7f26679fa1f3868c950e9362f1106cf73f3318de0280e0411a3c68e4b463eadd4f3447604051610f019291906120ee565b60405180910390a1565b60008060405180602001604052806000815250905060005b600180549050811015611315578660018281548110610f4557610f44611ee9565b5b906000526020600020906006020160000154148015610f8957508560018281548110610f7457610f73611ee9565b5b90600052602060002090600602016003015410155b15611308573373ffffffffffffffffffffffffffffffffffffffff1660018281548110610fb957610fb8611ee9565b5b906000526020600020906006020160010160009054906101000a900473ffffffffffffffffffffffffffffffffffffffff1673ffffffffffffffffffffffffffffffffffffffff1614611041576040517f08c379a0000000000000000000000000000000000000000000000000000000008152600401611038906125b3565b60405180910390fd5b856001828154811061105657611055611ee9565b5b9060005260206000209060060201600301600082825461107691906125d3565b925050819055506001818154811061109157611090611ee9565b5b906000526020600020906006020160020180546110ad90611eb8565b80601f01602080910402602001604051908101604052809291908181526020018280546110d990611eb8565b80156111265780601f106110fb57610100808354040283529160200191611126565b820191906000526020600020905b81548152906001019060200180831161110957829003601f168201915b5050505050915060006001828154811061114357611142611ee9565b5b906000526020600020906006020160030154036112ff5760008190505b6001808054905061117191906125d3565b81101561127b57600180826111869190612607565b8154811061119757611196611ee9565b5b9060005260206000209060060201600182815481106111b9576111b8611ee9565b5b9060005260206000209060060201600082015481600001556001820160009054906101000a900473ffffffffffffffffffffffffffffffffffffffff168160010160006101000a81548173ffffffffffffffffffffffffffffffffffffffff021916908373ffffffffffffffffffffffffffffffffffffffff1602179055506002820181600201908161124c9190612651565b506003820154816003015560048201548160040155600582015481600501559050508080600101915050611160565b50600180548061128e5761128d612739565b5b60019003818190600052602060002090600602016000808201600090556001820160006101000a81549073ffffffffffffffffffffffffffffffffffffffff02191690556002820160006112e291906117d1565b600382016000905560048201600090556005820160009055505090555b60019250611315565b8080600101915050610f23565b5081611356576040517f08c379a000000000000000000000000000000000000000000000000000000000815260040161134d906127da565b60405180910390fd5b600084866113649190612146565b9050600060646062836113779190612146565b61138191906121b7565b9050804710156113c6576040517f08c379a00000000000000000000000000000000000000000000000000000000081526004016113bd90612846565b60405180910390fd5b60006040518060e001604052808781526020018a81526020013373ffffffffffffffffffffffffffffffffffffffff1681526020018581526020018981526020018881526020014281525090506003819080600181540180825580915050600190039060005260206000209060070201600090919091909150600082015181600001556020820151816001015560408201518160020160006101000a81548173ffffffffffffffffffffffffffffffffffffffff021916908373ffffffffffffffffffffffffffffffffffffffff16021790555060608201518160030190816114af9190612400565b506080820151816004015560a0820151816005015560c0820151816006015550503373ffffffffffffffffffffffffffffffffffffffff166108fc839081150290604051600060405180830381858888f19350505050158015611516573d6000803e3d6000fd5b507fbed5e3c52f2048830866ed7ee1b8c12095b19d3a9f11d4b4fbeb556d51d4b8b786336040516115489291906124d2565b60405180910390a1505050505050505050565b611563611785565b60005b6001805490508110156116f157826001828154811061158857611587611ee9565b5b906000526020600020906006020160000154036116e457600181815481106115b3576115b2611ee9565b5b90600052602060002090600602016040518060c0016040529081600082015481526020016001820160009054906101000a900473ffffffffffffffffffffffffffffffffffffffff1673ffffffffffffffffffffffffffffffffffffffff1673ffffffffffffffffffffffffffffffffffffffff16815260200160028201805461163c90611eb8565b80601f016020809104026020016040519081016040528092919081815260200182805461166890611eb8565b80156116b55780601f1061168a576101008083540402835291602001916116b5565b820191906000526020600020905b81548152906001019060200180831161169857829003601f168201915b50505050508152602001600382015481526020016004820154815260200160058201548152505091505061172d565b8080600101915050611566565b506040517f08c379a0000000000000000000000000000000000000000000000000000000008152600401611724906128b2565b60405180910390fd5b919050565b6040518060e001604052806000815260200160008152602001600073ffffffffffffffffffffffffffffffffffffffff168152602001606081526020016000815260200160008152602001600081525090565b6040518060c0016040528060008152602001600073ffffffffffffffffffffffffffffffffffffffff168152602001606081526020016000815260200160008152602001600081525090565b5080546117dd90611eb8565b6000825580601f106117ef575061180e565b601f01602090049060005260206000209081019061180d9190611811565b5b50565b5b8082111561182a576000816000905550600101611812565b5090565b6000604051905090565b600080fd5b600080fd5b6000819050919050565b61185581611842565b811461186057600080fd5b50565b6000813590506118728161184c565b92915050565b60006020828403121561188e5761188d611838565b5b600061189c84828501611863565b91505092915050565b6118ae81611842565b82525050565b600073ffffffffffffffffffffffffffffffffffffffff82169050919050565b60006118df826118b4565b9050919050565b6118ef816118d4565b82525050565b600081519050919050565b600082825260208201905092915050565b60005b8381101561192f578082015181840152602081019050611914565b60008484015250505050565b6000601f19601f8301169050919050565b6000611957826118f5565b6119618185611900565b9350611971818560208601611911565b61197a8161193b565b840191505092915050565b600060c08201905061199a60008301896118a5565b6119a760208301886118e6565b81810360408301526119b9818761194c565b90506119c860608301866118a5565b6119d560808301856118a5565b6119e260a08301846118a5565b979650505050505050565b6119f681611842565b82525050565b611a05816118d4565b82525050565b600082825260208201905092915050565b6000611a27826118f5565b611a318185611a0b565b9350611a41818560208601611911565b611a4a8161193b565b840191505092915050565b600060e083016000830151611a6d60008601826119ed565b506020830151611a8060208601826119ed565b506040830151611a9360408601826119fc565b5060608301518482036060860152611aab8282611a1c565b9150506080830151611ac060808601826119ed565b5060a0830151611ad360a08601826119ed565b5060c0830151611ae660c08601826119ed565b508091505092915050565b60006020820190508181036000830152611b0b8184611a55565b905092915050565b600060c083016000830151611b2b60008601826119ed565b506020830151611b3e60208601826119fc565b5060408301518482036040860152611b568282611a1c565b9150506060830151611b6b60608601826119ed565b506080830151611b7e60808601826119ed565b5060a0830151611b9160a08601826119ed565b508091505092915050565b60006020820190508181036000830152611bb68184611b13565b905092915050565b600080fd5b600080fd5b7f4e487b7100000000000000000000000000000000000000000000000000000000600052604160045260246000fd5b611c008261193b565b810181811067ffffffffffffffff82111715611c1f57611c1e611bc8565b5b80604052505050565b6000611c3261182e565b9050611c3e8282611bf7565b919050565b600067ffffffffffffffff821115611c5e57611c5d611bc8565b5b611c678261193b565b9050602081019050919050565b82818337600083830152505050565b6000611c96611c9184611c43565b611c28565b905082815260208101848484011115611cb257611cb1611bc3565b5b611cbd848285611c74565b509392505050565b600082601f830112611cda57611cd9611bbe565b5b8135611cea848260208601611c83565b91505092915050565b60008060008060808587031215611d0d57611d0c611838565b5b600085013567ffffffffffffffff811115611d2b57611d2a61183d565b5b611d3787828801611cc5565b9450506020611d4887828801611863565b9350506040611d5987828801611863565b9250506060611d6a87828801611863565b91505092959194509250565b6000602082019050611d8b60008301846118a5565b92915050565b6000602082019050611da660008301846118e6565b92915050565b600060e082019050611dc1600083018a6118a5565b611dce60208301896118a5565b611ddb60408301886118e6565b8181036060830152611ded818761194c565b9050611dfc60808301866118a5565b611e0960a08301856118a5565b611e1660c08301846118a5565b98975050505050505050565b60008060008060808587031215611e3c57611e3b611838565b5b6000611e4a87828801611863565b9450506020611e5b87828801611863565b9350506040611e6c87828801611863565b9250506060611e7d87828801611863565b91505092959194509250565b7f4e487b7100000000000000000000000000000000000000000000000000000000600052602260045260246000fd5b60006002820490506001821680611ed057607f821691505b602082108103611ee357611ee2611e89565b5b50919050565b7f4e487b7100000000000000000000000000000000000000000000000000000000600052603260045260246000fd5b7f536f6c642073746f636b206e6f7420666f756e6420666f72207468697320736560008201527f6c6c696e67496400000000000000000000000000000000000000000000000000602082015250565b6000611f74602783611900565b9150611f7f82611f18565b604082019050919050565b60006020820190508181036000830152611fa381611f67565b9050919050565b7f426f7567687420686973746f7279206e6f7420666f756e640000000000000000600082015250565b6000611fe0601883611900565b9150611feb82611faa565b602082019050919050565b6000602082019050818103600083015261200f81611fd3565b9050919050565b7f4e6f742074686520636f6e7472616374206f776e657200000000000000000000600082015250565b600061204c601683611900565b915061205782612016565b602082019050919050565b6000602082019050818103600083015261207b8161203f565b9050919050565b7f496e73756666696369656e742062616c616e6365000000000000000000000000600082015250565b60006120b8601483611900565b91506120c382612082565b602082019050919050565b600060208201905081810360008301526120e7816120ab565b9050919050565b600060408201905061210360008301856118a5565b61211060208301846118a5565b9392505050565b7f4e487b7100000000000000000000000000000000000000000000000000000000600052601160045260246000fd5b600061215182611842565b915061215c83611842565b925082820261216a81611842565b9150828204841483151761218157612180612117565b5b5092915050565b7f4e487b7100000000000000000000000000000000000000000000000000000000600052601260045260246000fd5b60006121c282611842565b91506121cd83611842565b9250826121dd576121dc612188565b5b828204905092915050565b7f496e636f7272656374207061796d656e74000000000000000000000000000000600082015250565b600061221e601183611900565b9150612229826121e8565b602082019050919050565b6000602082019050818103600083015261224d81612211565b9050919050565b60008190508160005260206000209050919050565b60006020601f8301049050919050565b600082821b905092915050565b6000600883026122b67fffffffffffffffffffffffffffffffffffffffffffffffffffffffffffffffff82612279565b6122c08683612279565b95508019841693508086168417925050509392505050565b6000819050919050565b60006122fd6122f86122f384611842565b6122d8565b611842565b9050919050565b6000819050919050565b612317836122e2565b61232b61232382612304565b848454612286565b825550505050565b600090565b612340612333565b61234b81848461230e565b505050565b5b8181101561236f57612364600082612338565b600181019050612351565b5050565b601f8211156123b45761238581612254565b61238e84612269565b8101602085101561239d578190505b6123b16123a985612269565b830182612350565b50505b505050565b600082821c905092915050565b60006123d7600019846008026123b9565b1980831691505092915050565b60006123f083836123c6565b9150826002028217905092915050565b612409826118f5565b67ffffffffffffffff81111561242257612421611bc8565b5b61242c8254611eb8565b612437828285612373565b600060209050601f83116001811461246a5760008415612458578287015190505b61246285826123e4565b8655506124ca565b601f19841661247886612254565b60005b828110156124a05784890151825560018201915060208501945060208101905061247b565b868310156124bd57848901516124b9601f8916826123c6565b8355505b6001600288020188555050505b505050505050565b60006040820190506124e760008301856118a5565b6124f460208301846118e6565b9392505050565b7f4d757374206465706f73697420736f6d65204554480000000000000000000000600082015250565b6000612531601583611900565b915061253c826124fb565b602082019050919050565b6000602082019050818103600083015261256081612524565b9050919050565b7f4e6f7420796f75722073746f636b000000000000000000000000000000000000600082015250565b600061259d600e83611900565b91506125a882612567565b602082019050919050565b600060208201905081810360008301526125cc81612590565b9050919050565b60006125de82611842565b91506125e983611842565b925082820390508181111561260157612600612117565b5b92915050565b600061261282611842565b915061261d83611842565b925082820190508082111561263557612634612117565b5b92915050565b60008154905061264a81611eb8565b9050919050565b81810361265f575050612737565b6126688261263b565b67ffffffffffffffff81111561268157612680611bc8565b5b61268b8254611eb8565b612696828285612373565b6000601f8311600181146126c557600084156126b3578287015490505b6126bd85826123e4565b865550612730565b601f1984166126d387612254565b96506126de86612254565b60005b82811015612706578489015482556001820191506001850194506020810190506126e1565b86831015612723578489015461271f601f8916826123c6565b8355505b6001600288020188555050505b5050505050505b565b7f4e487b7100000000000000000000000000000000000000000000000000000000600052603160045260246000fd5b7f476f6c64206e6f7420666f756e64206f7220696e73756666696369656e74207760008201527f6569676874000000000000000000000000000000000000000000000000000000602082015250565b60006127c4602583611900565b91506127cf82612768565b604082019050919050565b600060208201905081810360008301526127f3816127b7565b9050919050565b7f496e73756666696369656e7420636f6e74726163742062616c616e6365000000600082015250565b6000612830601d83611900565b915061283b826127fa565b602082019050919050565b6000602082019050818103600083015261285f81612823565b9050919050565b7f486f6c64696e67206e6f7420666f756e64000000000000000000000000000000600082015250565b600061289c601183611900565b91506128a782612866565b602082019050919050565b600060208201905081810360008301526128cb8161288f565b905091905056fea2646970667358221220cefdb7e906fc678e2fc5c93a8bc8b76ffa9caf206bf6dc1e82a91ec59a0240f564736f6c634300081c0033",
  "linkReferences": {},
  "deployedLinkReferences": {}
}