{
  "_format": "hh-sol-artifact-1",
  "contractName": "MutualFunds",
  "sourceName": "contracts/MutualFunds.sol",
  "abi": [
    {
      "inputs": [],
      "stateMutability": "nonpayable",
      "type": "constructor"
    },
    {
      "anonymous": false,
      "inputs": [
        {
          "indexed": false,
          "internalType": "uint256",
          "name": "buyingId",
          "type": "uint256"
        },
        {
          "indexed": true,
          "internalType": "address",
          "name": "userId",
          "type": "address"
        }
      ],
      "name": "FundBought",
      "type": "event"
    },
    {
      "anonymous": false,
      "inputs": [
        {
          "indexed": false,
          "internalType": "uint256",
          "name": "sellingId",
          "type": "uint256"
        },
        {
          "indexed": true,
          "internalType": "address",
          "name": "userId",
          "type": "address"
        }
      ],
      "name": "FundSold",
      "type": "event"
    },
    {
      "anonymous": false,
      "inputs": [
        {
          "indexed": false,
          "internalType": "uint256",
          "name": "amountDeposited",
          "type": "uint256"
        },
        {
          "indexed": false,
          "internalType": "uint256",
          "name": "balance",
          "type": "uint256"
        }
      ],
      "name": "FundsDeposited",
      "type": "event"
    },
    {
      "anonymous": false,
      "inputs": [
        {
          "indexed": false,
          "internalType": "uint256",
          "name": "amountWithdrawn",
          "type": "uint256"
        },
        {
          "indexed": false,
          "internalType": "uint256",
          "name": "balance",
          "type": "uint256"
        }
      ],
      "name": "FundsWithdrawn",
      "type": "event"
    },
    {
      "inputs": [
        {
          "internalType": "uint256",
          "name": "",
          "type": "uint256"
        }
      ],
      "name": "allBoughtHistory",
      "outputs": [
        {
          "internalType": "uint256",
          "name": "buyingId",
          "type": "uint256"
        },
        {
          "internalType": "address",
          "name": "userId",
          "type": "address"
        },
        {
          "internalType": "string",
          "name": "mutualfundname",
          "type": "string"
        },
        {
          "internalType": "uint256",
          "name": "amount",
          "type": "uint256"
        },
        {
          "internalType": "uint256",
          "name": "boughtat",
          "type": "uint256"
        },
        {
          "internalType": "uint256",
          "name": "timestamp",
          "type": "uint256"
        },
        {
          "internalType": "uint256",
          "name": "amountdeposited",
          "type": "uint256"
        }
      ],
      "stateMutability": "view",
      "type": "function"
    },
    {
      "inputs": [
        {
          "internalType": "uint256",
          "name": "",
          "type": "uint256"
        }
      ],
      "name": "allHoldings",
      "outputs": [
        {
          "internalType": "uint256",
          "name": "buyingId",
          "type": "uint256"
        },
        {
          "internalType": "address",
          "name": "userId",
          "type": "address"
        },
        {
          "internalType": "string",
          "name": "mutualfundname",
          "type": "string"
        },
        {
          "internalType": "uint256",
          "name": "amount",
          "type": "uint256"
        },
        {
          "internalType": "uint256",
          "name": "boughtat",
          "type": "uint256"
        },
        {
          "internalType": "uint256",
          "name": "timestamp",
          "type": "uint256"
        },
        {
          "internalType": "uint256",
          "name": "amountdeposited",
          "type": "uint256"
        }
      ],
      "stateMutability": "view",
      "type": "function"
    },
    {
      "inputs": [
        {
          "internalType": "uint256",
          "name": "",
          "type": "uint256"
        }
      ],
      "name": "allSoldHistory",
      "outputs": [
        {
          "internalType": "uint256",
          "name": "sellingId",
          "type": "uint256"
        },
        {
          "internalType": "uint256",
          "name": "buyingId",
          "type": "uint256"
        },
        {
          "internalType": "address",
          "name": "userId",
          "type": "address"
        },
        {
          "internalType": "string",
          "name": "mutualfundname",
          "type": "string"
        },
        {
          "internalType": "uint256",
          "name": "amount",
          "type": "uint256"
        },
        {
          "internalType": "uint256",
          "name": "soldat",
          "type": "uint256"
        },
        {
          "internalType": "uint256",
          "name": "timestamp",
          "type": "uint256"
        }
      ],
      "stateMutability": "view",
      "type": "function"
    },
    {
      "inputs": [
        {
          "internalType": "string",
          "name": "_fundname",
          "type": "string"
        },
        {
          "internalType": "uint256",
          "name": "_fundquantity",
          "type": "uint256"
        },
        {
          "internalType": "uint256",
          "name": "_price",
          "type": "uint256"
        },
        {
          "internalType": "uint256",
          "name": "_buyingID",
          "type": "uint256"
        },
        {
          "internalType": "uint256",
          "name": "_amount",
          "type": "uint256"
        }
      ],
      "name": "buying",
      "outputs": [],
      "stateMutability": "payable",
      "type": "function"
    },
    {
      "inputs": [],
      "name": "deposit",
      "outputs": [],
      "stateMutability": "payable",
      "type": "function"
    },
    {
      "inputs": [],
      "name": "getContractBalance",
      "outputs": [
        {
          "internalType": "uint256",
          "name": "",
          "type": "uint256"
        }
      ],
      "stateMutability": "view",
      "type": "function"
    },
    {
      "inputs": [
        {
          "internalType": "uint256",
          "name": "_sellingId",
          "type": "uint256"
        }
      ],
      "name": "getSoldBySellingId",
      "outputs": [
        {
          "components": [
            {
              "internalType": "uint256",
              "name": "sellingId",
              "type": "uint256"
            },
            {
              "internalType": "uint256",
              "name": "buyingId",
              "type": "uint256"
            },
            {
              "internalType": "address",
              "name": "userId",
              "type": "address"
            },
            {
              "internalType": "string",
              "name": "mutualfundname",
              "type": "string"
            },
            {
              "internalType": "uint256",
              "name": "amount",
              "type": "uint256"
            },
            {
              "internalType": "uint256",
              "name": "soldat",
              "type": "uint256"
            },
            {
              "internalType": "uint256",
              "name": "timestamp",
              "type": "uint256"
            }
          ],
          "internalType": "struct MutualFunds.FundsSoldStruct",
          "name": "",
          "type": "tuple"
        }
      ],
      "stateMutability": "view",
      "type": "function"
    },
    {
      "inputs": [],
      "name": "owner",
      "outputs": [
        {
          "internalType": "address",
          "name": "",
          "type": "address"
        }
      ],
      "stateMutability": "view",
      "type": "function"
    },
    {
      "inputs": [
        {
          "internalType": "uint256",
          "name": "_buyingId",
          "type": "uint256"
        },
        {
          "internalType": "uint256",
          "name": "_fundquantity",
          "type": "uint256"
        },
        {
          "internalType": "uint256",
          "name": "_price",
          "type": "uint256"
        },
        {
          "internalType": "uint256",
          "name": "_sellingId",
          "type": "uint256"
        }
      ],
      "name": "selling",
      "outputs": [],
      "stateMutability": "nonpayable",
      "type": "function"
    },
    {
      "inputs": [
        {
          "internalType": "uint256",
          "name": "_buyingId",
          "type": "uint256"
        }
      ],
      "name": "viewBoughtByBuyingId",
      "outputs": [
        {
          "components": [
            {
              "internalType": "uint256",
              "name": "buyingId",
              "type": "uint256"
            },
            {
              "internalType": "address",
              "name": "userId",
              "type": "address"
            },
            {
              "internalType": "string",
              "name": "mutualfundname",
              "type": "string"
            },
            {
              "internalType": "uint256",
              "name": "amount",
              "type": "uint256"
            },
            {
              "internalType": "uint256",
              "name": "boughtat",
              "type": "uint256"
            },
            {
              "internalType": "uint256",
              "name": "timestamp",
              "type": "uint256"
            },
            {
              "internalType": "uint256",
              "name": "amountdeposited",
              "type": "uint256"
            }
          ],
          "internalType": "struct MutualFunds.FundsBoughtStruct",
          "name": "",
          "type": "tuple"
        }
      ],
      "stateMutability": "view",
      "type": "function"
    },
    {
      "inputs": [
        {
          "internalType": "uint256",
          "name": "_buyingId",
          "type": "uint256"
        }
      ],
      "name": "viewHoldingsByBuyingId",
      "outputs": [
        {
          "components": [
            {
              "internalType": "uint256",
              "name": "buyingId",
              "type": "uint256"
            },
            {
              "internalType": "address",
              "name": "userId",
              "type": "address"
            },
            {
              "internalType": "string",
              "name": "mutualfundname",
              "type": "string"
            },
            {
              "internalType": "uint256",
              "name": "amount",
              "type": "uint256"
            },
            {
              "internalType": "uint256",
              "name": "boughtat",
              "type": "uint256"
            },
            {
              "internalType": "uint256",
              "name": "timestamp",
              "type": "uint256"
            },
            {
              "internalType": "uint256",
              "name": "amountdeposited",
              "type": "uint256"
            }
          ],
          "internalType": "struct MutualFunds.FundsBoughtStruct",
          "name": "",
          "type": "tuple"
        }
      ],
      "stateMutability": "view",
      "type": "function"
    },
    {
      "inputs": [
        {
          "internalType": "uint256",
          "name": "amount",
          "type": "uint256"
        }
      ],
      "name": "withdraw",
      "outputs": [],
      "stateMutability": "nonpayable",
      "type": "function"
    }
  ],
  "bytecode": "0x6080604052348015600f57600080fd5b50336000806101000a81548173ffffffffffffffffffffffffffffffffffffffff021916908373ffffffffffffffffffffffffffffffffffffffff160217905550612a3c8061005f6000396000f3fe6080604052600436106100a75760003560e01c80636f9fb98a116100645780636f9fb98a146101f15780638da5cb5b1461021c57806396aff98414610247578063d0e30db01461028a578063dcad1a0114610294578063f828480f146102bd576100a7565b806324544c07146100ac57806325408712146100ef578063260e21e71461010b578063260e6b5f1461014e5780632df163f31461018b5780632e1a7d4d146101c8575b600080fd5b3480156100b857600080fd5b506100d360048036038101906100ce9190611934565b6102fa565b6040516100e69796959493929190611a41565b60405180910390f35b61010960048036038101906101049190611bec565b6103f4565b005b34801561011757600080fd5b50610132600480360381019061012d9190611934565b6106be565b6040516101459796959493929190611a41565b60405180910390f35b34801561015a57600080fd5b5061017560048036038101906101709190611934565b6107b8565b6040516101829190611d87565b60405180910390f35b34801561019757600080fd5b506101b260048036038101906101ad9190611934565b610999565b6040516101bf9190611e45565b60405180910390f35b3480156101d457600080fd5b506101ef60048036038101906101ea9190611934565b610b7a565b005b3480156101fd57600080fd5b50610206610cce565b6040516102139190611e67565b60405180910390f35b34801561022857600080fd5b50610231610d65565b60405161023e9190611e82565b60405180910390f35b34801561025357600080fd5b5061026e60048036038101906102699190611934565b610d89565b6040516102819796959493929190611e9d565b60405180910390f35b610292610e83565b005b3480156102a057600080fd5b506102bb60048036038101906102b69190611f13565b610f8f565b005b3480156102c957600080fd5b506102e460048036038101906102df9190611934565b611606565b6040516102f19190611e45565b60405180910390f35b6002818154811061030a57600080fd5b90600052602060002090600702016000915090508060000154908060010160009054906101000a900473ffffffffffffffffffffffffffffffffffffffff169080600201805461035990611fa9565b80601f016020809104026020016040519081016040528092919081815260200182805461038590611fa9565b80156103d25780601f106103a7576101008083540402835291602001916103d2565b820191906000526020600020905b8154815290600101906020018083116103b557829003601f168201915b5050505050908060030154908060040154908060050154908060060154905087565b803414610436576040517f08c379a000000000000000000000000000000000000000000000000000000000815260040161042d90612026565b60405180910390fd5b60006064606685876104489190612075565b6104529190612075565b61045c91906120e6565b90508082146104a0576040517f08c379a000000000000000000000000000000000000000000000000000000000815260040161049790612163565b60405180910390fd5b60006040518060e001604052808581526020013373ffffffffffffffffffffffffffffffffffffffff16815260200188815260200187815260200186815260200142815260200184815250905060018190806001815401808255809150506001900390600052602060002090600702016000909190919091506000820151816000015560208201518160010160006101000a81548173ffffffffffffffffffffffffffffffffffffffff021916908373ffffffffffffffffffffffffffffffffffffffff160217905550604082015181600201908161057f919061232f565b50606082015181600301556080820151816004015560a0820151816005015560c08201518160060155505060028190806001815401808255809150506001900390600052602060002090600702016000909190919091506000820151816000015560208201518160010160006101000a81548173ffffffffffffffffffffffffffffffffffffffff021916908373ffffffffffffffffffffffffffffffffffffffff160217905550604082015181600201908161063c919061232f565b50606082015181600301556080820151816004015560a0820151816005015560c0820151816006015550503373ffffffffffffffffffffffffffffffffffffffff167f4b3c05ba030490b25cd44cab7ec51472cbe0a0aac84d18613902ea0a5100ba3f856040516106ad9190611e67565b60405180910390a250505050505050565b600181815481106106ce57600080fd5b90600052602060002090600702016000915090508060000154908060010160009054906101000a900473ffffffffffffffffffffffffffffffffffffffff169080600201805461071d90611fa9565b80601f016020809104026020016040519081016040528092919081815260200182805461074990611fa9565b80156107965780601f1061076b57610100808354040283529160200191610796565b820191906000526020600020905b81548152906001019060200180831161077957829003601f168201915b5050505050908060030154908060040154908060050154908060060154905087565b6107c06117e7565b60005b6003805490508110156109585782600382815481106107e5576107e4612401565b5b9060005260206000209060070201600001540361094b57600381815481106108105761080f612401565b5b90600052602060002090600702016040518060e001604052908160008201548152602001600182015481526020016002820160009054906101000a900473ffffffffffffffffffffffffffffffffffffffff1673ffffffffffffffffffffffffffffffffffffffff1673ffffffffffffffffffffffffffffffffffffffff1681526020016003820180546108a390611fa9565b80601f01602080910402602001604051908101604052809291908181526020018280546108cf90611fa9565b801561091c5780601f106108f15761010080835404028352916020019161091c565b820191906000526020600020905b8154815290600101906020018083116108ff57829003601f168201915b505050505081526020016004820154815260200160058201548152602001600682015481525050915050610994565b80806001019150506107c3565b506040517f08c379a000000000000000000000000000000000000000000000000000000000815260040161098b906124a2565b60405180910390fd5b919050565b6109a161183a565b60005b600280549050811015610b395782600282815481106109c6576109c5612401565b5b90600052602060002090600702016000015403610b2c57600281815481106109f1576109f0612401565b5b90600052602060002090600702016040518060e0016040529081600082015481526020016001820160009054906101000a900473ffffffffffffffffffffffffffffffffffffffff1673ffffffffffffffffffffffffffffffffffffffff1673ffffffffffffffffffffffffffffffffffffffff168152602001600282018054610a7a90611fa9565b80601f0160208091040260200160405190810160405280929190818152602001828054610aa690611fa9565b8015610af35780601f10610ac857610100808354040283529160200191610af3565b820191906000526020600020905b815481529060010190602001808311610ad657829003601f168201915b50505050508152602001600382015481526020016004820154815260200160058201548152602001600682015481525050915050610b75565b80806001019150506109a4565b506040517f08c379a0000000000000000000000000000000000000000000000000000000008152600401610b6c9061250e565b60405180910390fd5b919050565b60008054906101000a900473ffffffffffffffffffffffffffffffffffffffff1673ffffffffffffffffffffffffffffffffffffffff163373ffffffffffffffffffffffffffffffffffffffff1614610c08576040517f08c379a0000000000000000000000000000000000000000000000000000000008152600401610bff9061257a565b60405180910390fd5b80471015610c4b576040517f08c379a0000000000000000000000000000000000000000000000000000000008152600401610c42906125e6565b60405180910390fd5b3373ffffffffffffffffffffffffffffffffffffffff166108fc829081150290604051600060405180830381858888f19350505050158015610c91573d6000803e3d6000fd5b507fd66662c0ded9e58fd31d5e44944bcfd07ffc15e6927ecc1382e7941cb7bd24c48147604051610cc3929190612606565b60405180910390a150565b60008060009054906101000a900473ffffffffffffffffffffffffffffffffffffffff1673ffffffffffffffffffffffffffffffffffffffff163373ffffffffffffffffffffffffffffffffffffffff1614610d5f576040517f08c379a0000000000000000000000000000000000000000000000000000000008152600401610d569061257a565b60405180910390fd5b47905090565b60008054906101000a900473ffffffffffffffffffffffffffffffffffffffff1681565b60038181548110610d9957600080fd5b90600052602060002090600702016000915090508060000154908060010154908060020160009054906101000a900473ffffffffffffffffffffffffffffffffffffffff1690806003018054610dee90611fa9565b80601f0160208091040260200160405190810160405280929190818152602001828054610e1a90611fa9565b8015610e675780601f10610e3c57610100808354040283529160200191610e67565b820191906000526020600020905b815481529060010190602001808311610e4a57829003601f168201915b5050505050908060040154908060050154908060060154905087565b60008054906101000a900473ffffffffffffffffffffffffffffffffffffffff1673ffffffffffffffffffffffffffffffffffffffff163373ffffffffffffffffffffffffffffffffffffffff1614610f11576040517f08c379a0000000000000000000000000000000000000000000000000000000008152600401610f089061257a565b60405180910390fd5b60003411610f54576040517f08c379a0000000000000000000000000000000000000000000000000000000008152600401610f4b9061267b565b60405180910390fd5b7f26679fa1f3868c950e9362f1106cf73f3318de0280e0411a3c68e4b463eadd4f3447604051610f85929190612606565b60405180910390a1565b60008060405180602001604052806000815250905060005b6001805490508110156113ab578660018281548110610fc957610fc8612401565b5b90600052602060002090600702016000015414801561100d57508560018281548110610ff857610ff7612401565b5b90600052602060002090600702016003015410155b1561139e573373ffffffffffffffffffffffffffffffffffffffff166001828154811061103d5761103c612401565b5b906000526020600020906007020160010160009054906101000a900473ffffffffffffffffffffffffffffffffffffffff1673ffffffffffffffffffffffffffffffffffffffff16146110c5576040517f08c379a00000000000000000000000000000000000000000000000000000000081526004016110bc906126e7565b60405180910390fd5b85600182815481106110da576110d9612401565b5b906000526020600020906007020160030160008282546110fa9190612707565b925050819055506001818154811061111557611114612401565b5b9060005260206000209060070201600201805461113190611fa9565b80601f016020809104026020016040519081016040528092919081815260200182805461115d90611fa9565b80156111aa5780601f1061117f576101008083540402835291602001916111aa565b820191906000526020600020905b81548152906001019060200180831161118d57829003601f168201915b505050505091506000600182815481106111c7576111c6612401565b5b906000526020600020906007020160030154036113955760008190505b600180805490506111f59190612707565b811015611309576001808261120a919061273b565b8154811061121b5761121a612401565b5b90600052602060002090600702016001828154811061123d5761123c612401565b5b9060005260206000209060070201600082015481600001556001820160009054906101000a900473ffffffffffffffffffffffffffffffffffffffff168160010160006101000a81548173ffffffffffffffffffffffffffffffffffffffff021916908373ffffffffffffffffffffffffffffffffffffffff160217905550600282018160020190816112d09190612785565b506003820154816003015560048201548160040155600582015481600501556006820154816006015590505080806001019150506111e4565b50600180548061131c5761131b61286d565b5b60019003818190600052602060002090600702016000808201600090556001820160006101000a81549073ffffffffffffffffffffffffffffffffffffffff0219169055600282016000611370919061188d565b6003820160009055600482016000905560058201600090556006820160009055505090555b600192506113ab565b8080600101915050610fa7565b50816113ec576040517f08c379a00000000000000000000000000000000000000000000000000000000081526004016113e39061290e565b60405180910390fd5b600084866113fa9190612075565b90506000606460628361140d9190612075565b61141791906120e6565b90508047101561145c576040517f08c379a00000000000000000000000000000000000000000000000000000000081526004016114539061297a565b60405180910390fd5b60006040518060e001604052808781526020018a81526020013373ffffffffffffffffffffffffffffffffffffffff1681526020018581526020018981526020018881526020014281525090506003819080600181540180825580915050600190039060005260206000209060070201600090919091909150600082015181600001556020820151816001015560408201518160020160006101000a81548173ffffffffffffffffffffffffffffffffffffffff021916908373ffffffffffffffffffffffffffffffffffffffff1602179055506060820151816003019081611545919061232f565b506080820151816004015560a0820151816005015560c0820151816006015550503373ffffffffffffffffffffffffffffffffffffffff166108fc839081150290604051600060405180830381858888f193505050501580156115ac573d6000803e3d6000fd5b503373ffffffffffffffffffffffffffffffffffffffff167f2f780330a621d9138bfa50c8c0ad24595af55acf8f953d5b65bb8e2a53153929876040516115f39190611e67565b60405180910390a2505050505050505050565b61160e61183a565b60005b6001805490508110156117a657826001828154811061163357611632612401565b5b90600052602060002090600702016000015403611799576001818154811061165e5761165d612401565b5b90600052602060002090600702016040518060e0016040529081600082015481526020016001820160009054906101000a900473ffffffffffffffffffffffffffffffffffffffff1673ffffffffffffffffffffffffffffffffffffffff1673ffffffffffffffffffffffffffffffffffffffff1681526020016002820180546116e790611fa9565b80601f016020809104026020016040519081016040528092919081815260200182805461171390611fa9565b80156117605780601f1061173557610100808354040283529160200191611760565b820191906000526020600020905b81548152906001019060200180831161174357829003601f168201915b505050505081526020016003820154815260200160048201548152602001600582015481526020016006820154815250509150506117e2565b8080600101915050611611565b506040517f08c379a00000000000000000000000000000000000000000000000000000000081526004016117d9906129e6565b60405180910390fd5b919050565b6040518060e001604052806000815260200160008152602001600073ffffffffffffffffffffffffffffffffffffffff168152602001606081526020016000815260200160008152602001600081525090565b6040518060e0016040528060008152602001600073ffffffffffffffffffffffffffffffffffffffff16815260200160608152602001600081526020016000815260200160008152602001600081525090565b50805461189990611fa9565b6000825580601f106118ab57506118ca565b601f0160209004906000526020600020908101906118c991906118cd565b5b50565b5b808211156118e65760008160009055506001016118ce565b5090565b6000604051905090565b600080fd5b600080fd5b6000819050919050565b611911816118fe565b811461191c57600080fd5b50565b60008135905061192e81611908565b92915050565b60006020828403121561194a576119496118f4565b5b60006119588482850161191f565b91505092915050565b61196a816118fe565b82525050565b600073ffffffffffffffffffffffffffffffffffffffff82169050919050565b600061199b82611970565b9050919050565b6119ab81611990565b82525050565b600081519050919050565b600082825260208201905092915050565b60005b838110156119eb5780820151818401526020810190506119d0565b60008484015250505050565b6000601f19601f8301169050919050565b6000611a13826119b1565b611a1d81856119bc565b9350611a2d8185602086016119cd565b611a36816119f7565b840191505092915050565b600060e082019050611a56600083018a611961565b611a6360208301896119a2565b8181036040830152611a758188611a08565b9050611a846060830187611961565b611a916080830186611961565b611a9e60a0830185611961565b611aab60c0830184611961565b98975050505050505050565b600080fd5b600080fd5b7f4e487b7100000000000000000000000000000000000000000000000000000000600052604160045260246000fd5b611af9826119f7565b810181811067ffffffffffffffff82111715611b1857611b17611ac1565b5b80604052505050565b6000611b2b6118ea565b9050611b378282611af0565b919050565b600067ffffffffffffffff821115611b5757611b56611ac1565b5b611b60826119f7565b9050602081019050919050565b82818337600083830152505050565b6000611b8f611b8a84611b3c565b611b21565b905082815260208101848484011115611bab57611baa611abc565b5b611bb6848285611b6d565b509392505050565b600082601f830112611bd357611bd2611ab7565b5b8135611be3848260208601611b7c565b91505092915050565b600080600080600060a08688031215611c0857611c076118f4565b5b600086013567ffffffffffffffff811115611c2657611c256118f9565b5b611c3288828901611bbe565b9550506020611c438882890161191f565b9450506040611c548882890161191f565b9350506060611c658882890161191f565b9250506080611c768882890161191f565b9150509295509295909350565b611c8c816118fe565b82525050565b611c9b81611990565b82525050565b600082825260208201905092915050565b6000611cbd826119b1565b611cc78185611ca1565b9350611cd78185602086016119cd565b611ce0816119f7565b840191505092915050565b600060e083016000830151611d036000860182611c83565b506020830151611d166020860182611c83565b506040830151611d296040860182611c92565b5060608301518482036060860152611d418282611cb2565b9150506080830151611d566080860182611c83565b5060a0830151611d6960a0860182611c83565b5060c0830151611d7c60c0860182611c83565b508091505092915050565b60006020820190508181036000830152611da18184611ceb565b905092915050565b600060e083016000830151611dc16000860182611c83565b506020830151611dd46020860182611c92565b5060408301518482036040860152611dec8282611cb2565b9150506060830151611e016060860182611c83565b506080830151611e146080860182611c83565b5060a0830151611e2760a0860182611c83565b5060c0830151611e3a60c0860182611c83565b508091505092915050565b60006020820190508181036000830152611e5f8184611da9565b905092915050565b6000602082019050611e7c6000830184611961565b92915050565b6000602082019050611e9760008301846119a2565b92915050565b600060e082019050611eb2600083018a611961565b611ebf6020830189611961565b611ecc60408301886119a2565b8181036060830152611ede8187611a08565b9050611eed6080830186611961565b611efa60a0830185611961565b611f0760c0830184611961565b98975050505050505050565b60008060008060808587031215611f2d57611f2c6118f4565b5b6000611f3b8782880161191f565b9450506020611f4c8782880161191f565b9350506040611f5d8782880161191f565b9250506060611f6e8782880161191f565b91505092959194509250565b7f4e487b7100000000000000000000000000000000000000000000000000000000600052602260045260246000fd5b60006002820490506001821680611fc157607f821691505b602082108103611fd457611fd3611f7a565b5b50919050565b7f496e636f7272656374204554482073656e740000000000000000000000000000600082015250565b60006120106012836119bc565b915061201b82611fda565b602082019050919050565b6000602082019050818103600083015261203f81612003565b9050919050565b7f4e487b7100000000000000000000000000000000000000000000000000000000600052601160045260246000fd5b6000612080826118fe565b915061208b836118fe565b9250828202612099816118fe565b915082820484148315176120b0576120af612046565b5b5092915050565b7f4e487b7100000000000000000000000000000000000000000000000000000000600052601260045260246000fd5b60006120f1826118fe565b91506120fc836118fe565b92508261210c5761210b6120b7565b5b828204905092915050565b7f496e636f7272656374207061796d656e7420616d6f756e740000000000000000600082015250565b600061214d6018836119bc565b915061215882612117565b602082019050919050565b6000602082019050818103600083015261217c81612140565b9050919050565b60008190508160005260206000209050919050565b60006020601f8301049050919050565b600082821b905092915050565b6000600883026121e57fffffffffffffffffffffffffffffffffffffffffffffffffffffffffffffffff826121a8565b6121ef86836121a8565b95508019841693508086168417925050509392505050565b6000819050919050565b600061222c612227612222846118fe565b612207565b6118fe565b9050919050565b6000819050919050565b61224683612211565b61225a61225282612233565b8484546121b5565b825550505050565b600090565b61226f612262565b61227a81848461223d565b505050565b5b8181101561229e57612293600082612267565b600181019050612280565b5050565b601f8211156122e3576122b481612183565b6122bd84612198565b810160208510156122cc578190505b6122e06122d885612198565b83018261227f565b50505b505050565b600082821c905092915050565b6000612306600019846008026122e8565b1980831691505092915050565b600061231f83836122f5565b9150826002028217905092915050565b612338826119b1565b67ffffffffffffffff81111561235157612350611ac1565b5b61235b8254611fa9565b6123668282856122a2565b600060209050601f8311600181146123995760008415612387578287015190505b6123918582612313565b8655506123f9565b601f1984166123a786612183565b60005b828110156123cf578489015182556001820191506020850194506020810190506123aa565b868310156123ec57848901516123e8601f8916826122f5565b8355505b6001600288020188555050505b505050505050565b7f4e487b7100000000000000000000000000000000000000000000000000000000600052603260045260246000fd5b7f536f6c642073746f636b206e6f7420666f756e6420666f72207468697320736560008201527f6c6c696e67496400000000000000000000000000000000000000000000000000602082015250565b600061248c6027836119bc565b915061249782612430565b604082019050919050565b600060208201905081810360008301526124bb8161247f565b9050919050565b7f426f7567687420686973746f7279206e6f7420666f756e640000000000000000600082015250565b60006124f86018836119bc565b9150612503826124c2565b602082019050919050565b60006020820190508181036000830152612527816124eb565b9050919050565b7f4e6f742074686520636f6e7472616374206f776e657200000000000000000000600082015250565b60006125646016836119bc565b915061256f8261252e565b602082019050919050565b6000602082019050818103600083015261259381612557565b9050919050565b7f496e73756666696369656e742062616c616e6365000000000000000000000000600082015250565b60006125d06014836119bc565b91506125db8261259a565b602082019050919050565b600060208201905081810360008301526125ff816125c3565b9050919050565b600060408201905061261b6000830185611961565b6126286020830184611961565b9392505050565b7f4d757374206465706f73697420736f6d65204554480000000000000000000000600082015250565b60006126656015836119bc565b91506126708261262f565b602082019050919050565b6000602082019050818103600083015261269481612658565b9050919050565b7f4e6f7420796f75722066756e6400000000000000000000000000000000000000600082015250565b60006126d1600d836119bc565b91506126dc8261269b565b602082019050919050565b60006020820190508181036000830152612700816126c4565b9050919050565b6000612712826118fe565b915061271d836118fe565b925082820390508181111561273557612734612046565b5b92915050565b6000612746826118fe565b9150612751836118fe565b925082820190508082111561276957612768612046565b5b92915050565b60008154905061277e81611fa9565b9050919050565b81810361279357505061286b565b61279c8261276f565b67ffffffffffffffff8111156127b5576127b4611ac1565b5b6127bf8254611fa9565b6127ca8282856122a2565b6000601f8311600181146127f957600084156127e7578287015490505b6127f18582612313565b865550612864565b601f19841661280787612183565b965061281286612183565b60005b8281101561283a57848901548255600182019150600185019450602081019050612815565b868310156128575784890154612853601f8916826122f5565b8355505b6001600288020188555050505b5050505050505b565b7f4e487b7100000000000000000000000000000000000000000000000000000000600052603160045260246000fd5b7f46756e64206e6f7420666f756e64206f7220696e73756666696369656e74207160008201527f75616e7469747900000000000000000000000000000000000000000000000000602082015250565b60006128f86027836119bc565b91506129038261289c565b604082019050919050565b60006020820190508181036000830152612927816128eb565b9050919050565b7f496e73756666696369656e7420636f6e74726163742062616c616e6365000000600082015250565b6000612964601d836119bc565b915061296f8261292e565b602082019050919050565b6000602082019050818103600083015261299381612957565b9050919050565b7f486f6c64696e67206e6f7420666f756e64000000000000000000000000000000600082015250565b60006129d06011836119bc565b91506129db8261299a565b602082019050919050565b600060208201905081810360008301526129ff816129c3565b905091905056fea26469706673582212200ac23fd22303aff94707c7e16130662d30aabc3bc891607a58aaaebfb77119a364736f6c634300081c0033",
  "linkReferences": {},
  "deployedLinkReferences": {}
}